{
  "_format": "hh-sol-artifact-1",
  "contractName": "SimpleContract",
  "sourceName": "contracts/SimpleContract.sol",
  "abi": [
    {
      "inputs": [
        {
          "internalType": "uint256",
          "name": "_number",
          "type": "uint256"
        },
        {
          "internalType": "address",
          "name": "_trustedForwader",
          "type": "address"
        }
      ],
      "stateMutability": "nonpayable",
      "type": "constructor"
    },
    {
      "inputs": [],
      "name": "getNumber",
      "outputs": [
        {
          "internalType": "uint256",
          "name": "",
          "type": "uint256"
        }
      ],
      "stateMutability": "view",
      "type": "function"
    },
    {
      "inputs": [
        {
          "internalType": "address",
          "name": "forwarder",
          "type": "address"
        }
      ],
      "name": "isTrustedForwarder",
      "outputs": [
        {
          "internalType": "bool",
          "name": "",
          "type": "bool"
        }
      ],
      "stateMutability": "view",
      "type": "function"
    },
    {
      "inputs": [],
      "name": "myNumber",
      "outputs": [
        {
          "internalType": "uint256",
          "name": "",
          "type": "uint256"
        }
      ],
      "stateMutability": "view",
      "type": "function"
    },
    {
      "inputs": [
        {
          "internalType": "uint256",
          "name": "_number",
          "type": "uint256"
        }
      ],
      "name": "updateNumber",
      "outputs": [],
      "stateMutability": "nonpayable",
      "type": "function"
    }
  ],
  "bytecode": "0x60a060405234801561001057600080fd5b5060405161043c38038061043c8339818101604052810190610032919061010f565b808073ffffffffffffffffffffffffffffffffffffffff1660808173ffffffffffffffffffffffffffffffffffffffff16815250505081600081905550505061014f565b600080fd5b6000819050919050565b61008e8161007b565b811461009957600080fd5b50565b6000815190506100ab81610085565b92915050565b600073ffffffffffffffffffffffffffffffffffffffff82169050919050565b60006100dc826100b1565b9050919050565b6100ec816100d1565b81146100f757600080fd5b50565b600081519050610109816100e3565b92915050565b6000806040838503121561012657610125610076565b5b60006101348582860161009c565b9250506020610145858286016100fa565b9150509250929050565b6080516102d3610169600039600060ed01526102d36000f3fe608060405234801561001057600080fd5b506004361061004c5760003560e01c80631db05a881461005157806323fd0e401461006d578063572b6c051461008b578063f2c9ecd8146100bb575b600080fd5b61006b60048036038101906100669190610185565b6100d9565b005b6100756100e3565b60405161008291906101c1565b60405180910390f35b6100a560048036038101906100a0919061023a565b6100e9565b6040516100b29190610282565b60405180910390f35b6100c3610141565b6040516100d091906101c1565b60405180910390f35b8060008190555050565b60005481565b60007f000000000000000000000000000000000000000000000000000000000000000073ffffffffffffffffffffffffffffffffffffffff168273ffffffffffffffffffffffffffffffffffffffff16149050919050565b60008054905090565b600080fd5b6000819050919050565b6101628161014f565b811461016d57600080fd5b50565b60008135905061017f81610159565b92915050565b60006020828403121561019b5761019a61014a565b5b60006101a984828501610170565b91505092915050565b6101bb8161014f565b82525050565b60006020820190506101d660008301846101b2565b92915050565b600073ffffffffffffffffffffffffffffffffffffffff82169050919050565b6000610207826101dc565b9050919050565b610217816101fc565b811461022257600080fd5b50565b6000813590506102348161020e565b92915050565b6000602082840312156102505761024f61014a565b5b600061025e84828501610225565b91505092915050565b60008115159050919050565b61027c81610267565b82525050565b60006020820190506102976000830184610273565b9291505056fea26469706673582212208b85036af0217bf1cb1534d07e8eb929c61ae23301a075b9439ba22ee29a344364736f6c634300081b0033",
  "linkReferences": {},
  "deployedLinkReferences": {}
}