{
  "_format": "hh-sol-artifact-1",
  "contractName": "SimpleContractSyncFee",
  "sourceName": "contracts/SimpleContractSyncFee.sol",
  "abi": [
    {
      "inputs": [
        {
          "internalType": "uint256",
          "name": "_number",
          "type": "uint256"
        }
      ],
      "stateMutability": "nonpayable",
      "type": "constructor"
    },
    {
      "inputs": [],
      "name": "getNumber",
      "outputs": [
        {
          "internalType": "uint256",
          "name": "",
          "type": "uint256"
        }
      ],
      "stateMutability": "view",
      "type": "function"
    },
    {
      "inputs": [],
      "name": "myNumber",
      "outputs": [
        {
          "internalType": "uint256",
          "name": "",
          "type": "uint256"
        }
      ],
      "stateMutability": "view",
      "type": "function"
    },
    {
      "inputs": [
        {
          "internalType": "uint256",
          "name": "_number",
          "type": "uint256"
        }
      ],
      "name": "updateNumber",
      "outputs": [],
      "stateMutability": "nonpayable",
      "type": "function"
    },
    {
      "stateMutability": "payable",
      "type": "receive"
    }
  ],
  "bytecode": "0x60c060405234801561001057600080fd5b506040516113ec3803806113ec83398181016040528101906100329190610419565b610041466100b460201b60201c565b151560808115158152505061005b466103b360201b60201c565b151560a0811515815250508060008190555033600160006101000a81548173ffffffffffffffffffffffffffffffffffffffff021916908373ffffffffffffffffffffffffffffffffffffffff16021790555050610446565b600060018214806100c55750600a82145b806100d05750601982145b806100db5750601e82145b806100e65750603882145b806100f15750606482145b806100fc5750606d82145b806101075750608982145b80610112575060b782145b8061011d575060e982145b80610128575060fa82145b80610134575061013a82145b80610140575061044082145b8061014c575061044d82145b80610158575061046f82145b80610164575061050482145b80610170575061050582145b8061017c57506106c182145b80610188575061072582145b80610194575061072982145b806101a057506107f782145b806101ac5750610ec082145b806101b8575061106a82145b806101c457506118fe82145b806101d0575061210582145b806101dc57506127d882145b806101e8575061473782145b806101f4575061473982145b8061020057506162ef82145b8061020c575061868b82145b80610218575061a1ef82145b80610224575061a45582145b80610230575061a4b182145b8061023c575061a86a82145b80610248575061e70882145b8061025557506201388282145b806102625750620138d482145b8061026f575062013e3182145b8061027c575062014a3482145b8061028957506201b25482145b8061029657506203ade082145b806102a3575062066eee82145b806102b05750620a045c82145b806102bd575062133e4082145b806102ca5750625c235982145b806102d757506276adf182145b806102e4575062aa36a782145b806102f1575062aa37dc82145b806102ff57506301bf493382145b8061030d5750630426e64982145b8061031b5750630553507282145b80610329575063059d713182145b80610337575063075b3dcf82145b806103455750630a0c71fd82145b806103535750630d3b745e82145b806103615750633b4c8eb982145b8061036f5750635241524982145b8061037d575063bc1392a682145b8061038c57506412dbe9140282145b8061039b57506414865d0f0582145b156103a957600190506103ae565b600090505b919050565b60006101448214806103c6575061011882145b156103d457600190506103d9565b600090505b919050565b600080fd5b6000819050919050565b6103f6816103e3565b811461040157600080fd5b50565b600081519050610413816103ed565b92915050565b60006020828403121561042f5761042e6103de565b5b600061043d84828501610404565b91505092915050565b60805160a051610f8161046b60003960006101c7015260006102810152610f816000f3fe6080604052600436106100385760003560e01c80631db05a881461004457806323fd0e401461006d578063f2c9ecd8146100985761003f565b3661003f57005b600080fd5b34801561005057600080fd5b5061006b60048036038101906100669190610974565b6100c3565b005b34801561007957600080fd5b506100826101b4565b60405161008f91906109b0565b60405180910390f35b3480156100a457600080fd5b506100ad6101ba565b6040516100ba91906109b0565b60405180910390f35b6100cc336101c3565b61010b576040517f08c379a000000000000000000000000000000000000000000000000000000000815260040161010290610a28565b60405180910390fd5b600160009054906101000a900473ffffffffffffffffffffffffffffffffffffffff1673ffffffffffffffffffffffffffffffffffffffff1661014c6103ce565b73ffffffffffffffffffffffffffffffffffffffff16146101a2576040517f08c379a000000000000000000000000000000000000000000000000000000000815260040161019990610a94565b60405180910390fd5b806000819055506101b16103f1565b50565b60005481565b60008054905090565b60007f00000000000000000000000000000000000000000000000000000000000000001561027f577322dcc39b2ac376862183dd35a1664798dafc7da673ffffffffffffffffffffffffffffffffffffffff168273ffffffffffffffffffffffffffffffffffffffff161480610278575073ba4082f4961c8fb76231995c967cd9aa40f321b573ffffffffffffffffffffffffffffffffffffffff168273ffffffffffffffffffffffffffffffffffffffff16145b90506103c9565b7f0000000000000000000000000000000000000000000000000000000000000000156103395773b539068872230f20456cf38ec52ef2f91af4ae4973ffffffffffffffffffffffffffffffffffffffff168273ffffffffffffffffffffffffffffffffffffffff1614806103325750738598806401a63ddf52473f1b3c55bc9e33e2d73b73ffffffffffffffffffffffffffffffffffffffff168273ffffffffffffffffffffffffffffffffffffffff16145b90506103c9565b738ace64cea52b409f930f60b516f65197fad4b05673ffffffffffffffffffffffffffffffffffffffff168273ffffffffffffffffffffffffffffffffffffffff1614806103c6575073c7739c195618d314c08e8626c98f8573e4e4363473ffffffffffffffffffffffffffffffffffffffff168273ffffffffffffffffffffffffffffffffffffffff16145b90505b919050565b60006103d9336101c3565b6103e357336103ec565b6103eb610433565b5b905090565b6104316103fc610442565b610404610451565b61040c610460565b73ffffffffffffffffffffffffffffffffffffffff1661046f9092919063ffffffff16565b565b6000601436033560601c905090565b600061044c610500565b905090565b600061045b61050f565b905090565b600061046a61051b565b905090565b60008103156104fb5773eeeeeeeeeeeeeeeeeeeeeeeeeeeeeeeeeeeeeeee73ffffffffffffffffffffffffffffffffffffffff168373ffffffffffffffffffffffffffffffffffffffff16146104ef576104ea82828573ffffffffffffffffffffffffffffffffffffffff1661052a9092919063ffffffff16565b6104fa565b6104f982826105b0565b5b5b505050565b6000605c36033560601c905090565b60006034360335905090565b6000604836033560601c905090565b6105ab8363a9059cbb60e01b8484604051602401610549929190610af5565b604051602081830303815290604052907bffffffffffffffffffffffffffffffffffffffffffffffffffffffff19166020820180517bffffffffffffffffffffffffffffffffffffffffffffffffffffffff83818316178352505050506106a4565b505050565b804710156105f3576040517f08c379a00000000000000000000000000000000000000000000000000000000081526004016105ea90610b6a565b60405180910390fd5b60008273ffffffffffffffffffffffffffffffffffffffff168260405161061990610bbb565b60006040518083038185875af1925050503d8060008114610656576040519150601f19603f3d011682016040523d82523d6000602084013e61065b565b606091505b505090508061069f576040517f08c379a000000000000000000000000000000000000000000000000000000000815260040161069690610c42565b60405180910390fd5b505050565b6000610706826040518060400160405280602081526020017f5361666545524332303a206c6f772d6c6576656c2063616c6c206661696c65648152508573ffffffffffffffffffffffffffffffffffffffff1661076c9092919063ffffffff16565b90506000815114806107285750808060200190518101906107279190610c9a565b5b610767576040517f08c379a000000000000000000000000000000000000000000000000000000000815260040161075e90610d39565b60405180910390fd5b505050565b606061077b8484600085610784565b90509392505050565b6060824710156107c9576040517f08c379a00000000000000000000000000000000000000000000000000000000081526004016107c090610dcb565b60405180910390fd5b6000808673ffffffffffffffffffffffffffffffffffffffff1685876040516107f29190610e51565b60006040518083038185875af1925050503d806000811461082f576040519150601f19603f3d011682016040523d82523d6000602084013e610834565b606091505b509150915061084587838387610851565b92505050949350505050565b606083156108b35760008351036108ab5761086b856108c6565b6108aa576040517f08c379a00000000000000000000000000000000000000000000000000000000081526004016108a190610eb4565b60405180910390fd5b5b8290506108be565b6108bd83836108e9565b5b949350505050565b6000808273ffffffffffffffffffffffffffffffffffffffff163b119050919050565b6000825111156108fc5781518083602001fd5b806040517f08c379a00000000000000000000000000000000000000000000000000000000081526004016109309190610f29565b60405180910390fd5b600080fd5b6000819050919050565b6109518161093e565b811461095c57600080fd5b50565b60008135905061096e81610948565b92915050565b60006020828403121561098a57610989610939565b5b60006109988482850161095f565b91505092915050565b6109aa8161093e565b82525050565b60006020820190506109c560008301846109a1565b92915050565b600082825260208201905092915050565b7f6f6e6c7947656c61746f52656c61794552433237373100000000000000000000600082015250565b6000610a126016836109cb565b9150610a1d826109dc565b602082019050919050565b60006020820190508181036000830152610a4181610a05565b9050919050565b7f4e4f5420415554484f52495a4544000000000000000000000000000000000000600082015250565b6000610a7e600e836109cb565b9150610a8982610a48565b602082019050919050565b60006020820190508181036000830152610aad81610a71565b9050919050565b600073ffffffffffffffffffffffffffffffffffffffff82169050919050565b6000610adf82610ab4565b9050919050565b610aef81610ad4565b82525050565b6000604082019050610b0a6000830185610ae6565b610b1760208301846109a1565b9392505050565b7f416464726573733a20696e73756666696369656e742062616c616e6365000000600082015250565b6000610b54601d836109cb565b9150610b5f82610b1e565b602082019050919050565b60006020820190508181036000830152610b8381610b47565b9050919050565b600081905092915050565b50565b6000610ba5600083610b8a565b9150610bb082610b95565b600082019050919050565b6000610bc682610b98565b9150819050919050565b7f416464726573733a20756e61626c6520746f2073656e642076616c75652c207260008201527f6563697069656e74206d61792068617665207265766572746564000000000000602082015250565b6000610c2c603a836109cb565b9150610c3782610bd0565b604082019050919050565b60006020820190508181036000830152610c5b81610c1f565b9050919050565b60008115159050919050565b610c7781610c62565b8114610c8257600080fd5b50565b600081519050610c9481610c6e565b92915050565b600060208284031215610cb057610caf610939565b5b6000610cbe84828501610c85565b91505092915050565b7f5361666545524332303a204552433230206f7065726174696f6e20646964206e60008201527f6f74207375636365656400000000000000000000000000000000000000000000602082015250565b6000610d23602a836109cb565b9150610d2e82610cc7565b604082019050919050565b60006020820190508181036000830152610d5281610d16565b9050919050565b7f416464726573733a20696e73756666696369656e742062616c616e636520666f60008201527f722063616c6c0000000000000000000000000000000000000000000000000000602082015250565b6000610db56026836109cb565b9150610dc082610d59565b604082019050919050565b60006020820190508181036000830152610de481610da8565b9050919050565b600081519050919050565b60005b83811015610e14578082015181840152602081019050610df9565b60008484015250505050565b6000610e2b82610deb565b610e358185610b8a565b9350610e45818560208601610df6565b80840191505092915050565b6000610e5d8284610e20565b915081905092915050565b7f416464726573733a2063616c6c20746f206e6f6e2d636f6e7472616374000000600082015250565b6000610e9e601d836109cb565b9150610ea982610e68565b602082019050919050565b60006020820190508181036000830152610ecd81610e91565b9050919050565b600081519050919050565b6000601f19601f8301169050919050565b6000610efb82610ed4565b610f0581856109cb565b9350610f15818560208601610df6565b610f1e81610edf565b840191505092915050565b60006020820190508181036000830152610f438184610ef0565b90509291505056fea2646970667358221220128b6790cb522753beef2e8fdcac09b4823c4a6b7bfcbafd0361f59ed436675464736f6c634300081b0033",
  "linkReferences": {},
  "deployedLinkReferences": {}
}