{
  "_format": "hh-sol-artifact-1",
  "contractName": "SimpleContractUserPermit",
  "sourceName": "contracts/SimpleContractUserPermit.sol",
  "abi": [
    {
      "inputs": [
        {
          "internalType": "contract ERC20Permit",
          "name": "_token",
          "type": "address"
        },
        {
          "internalType": "uint256",
          "name": "_price",
          "type": "uint256"
        }
      ],
      "stateMutability": "nonpayable",
      "type": "constructor"
    },
    {
      "inputs": [],
      "name": "myNumber",
      "outputs": [
        {
          "internalType": "uint256",
          "name": "",
          "type": "uint256"
        }
      ],
      "stateMutability": "view",
      "type": "function"
    },
    {
      "inputs": [],
      "name": "price",
      "outputs": [
        {
          "internalType": "uint256",
          "name": "",
          "type": "uint256"
        }
      ],
      "stateMutability": "view",
      "type": "function"
    },
    {
      "inputs": [],
      "name": "supply",
      "outputs": [
        {
          "internalType": "uint256",
          "name": "",
          "type": "uint256"
        }
      ],
      "stateMutability": "view",
      "type": "function"
    },
    {
      "inputs": [],
      "name": "token",
      "outputs": [
        {
          "internalType": "contract ERC20Permit",
          "name": "",
          "type": "address"
        }
      ],
      "stateMutability": "view",
      "type": "function"
    },
    {
      "inputs": [
        {
          "internalType": "address",
          "name": "to",
          "type": "address"
        },
        {
          "internalType": "uint256",
          "name": "amount",
          "type": "uint256"
        },
        {
          "internalType": "uint256",
          "name": "deadline",
          "type": "uint256"
        },
        {
          "internalType": "uint256",
          "name": "_number",
          "type": "uint256"
        },
        {
          "internalType": "uint8",
          "name": "v",
          "type": "uint8"
        },
        {
          "internalType": "bytes32",
          "name": "r",
          "type": "bytes32"
        },
        {
          "internalType": "bytes32",
          "name": "s",
          "type": "bytes32"
        }
      ],
      "name": "updateNumber",
      "outputs": [],
      "stateMutability": "nonpayable",
      "type": "function"
    }
  ],
  "bytecode": "0x60c060405234801561001057600080fd5b50604051610f24380380610f248339818101604052810190610032919061048a565b610041466100b560201b60201c565b151560808115158152505061005b466103b460201b60201c565b151560a08115158152505081600160006101000a81548173ffffffffffffffffffffffffffffffffffffffff021916908373ffffffffffffffffffffffffffffffffffffffff1602179055508060028190555050506104ca565b600060018214806100c65750600a82145b806100d15750601982145b806100dc5750601e82145b806100e75750603882145b806100f25750606482145b806100fd5750606d82145b806101085750608982145b80610113575060b782145b8061011e575060e982145b80610129575060fa82145b80610135575061013a82145b80610141575061044082145b8061014d575061044d82145b80610159575061046f82145b80610165575061050482145b80610171575061050582145b8061017d57506106c182145b80610189575061072582145b80610195575061072982145b806101a157506107f782145b806101ad5750610ec082145b806101b9575061106a82145b806101c557506118fe82145b806101d1575061210582145b806101dd57506127d882145b806101e9575061473782145b806101f5575061473982145b8061020157506162ef82145b8061020d575061868b82145b80610219575061a1ef82145b80610225575061a45582145b80610231575061a4b182145b8061023d575061a86a82145b80610249575061e70882145b8061025657506201388282145b806102635750620138d482145b80610270575062013e3182145b8061027d575062014a3482145b8061028a57506201b25482145b8061029757506203ade082145b806102a4575062066eee82145b806102b15750620a045c82145b806102be575062133e4082145b806102cb5750625c235982145b806102d857506276adf182145b806102e5575062aa36a782145b806102f2575062aa37dc82145b8061030057506301bf493382145b8061030e5750630426e64982145b8061031c5750630553507282145b8061032a575063059d713182145b80610338575063075b3dcf82145b806103465750630a0c71fd82145b806103545750630d3b745e82145b806103625750633b4c8eb982145b806103705750635241524982145b8061037e575063bc1392a682145b8061038d57506412dbe9140282145b8061039c57506414865d0f0582145b156103aa57600190506103af565b600090505b919050565b60006101448214806103c7575061011882145b156103d557600190506103da565b600090505b919050565b600080fd5b600073ffffffffffffffffffffffffffffffffffffffff82169050919050565b600061040f826103e4565b9050919050565b600061042182610404565b9050919050565b61043181610416565b811461043c57600080fd5b50565b60008151905061044e81610428565b92915050565b6000819050919050565b61046781610454565b811461047257600080fd5b50565b6000815190506104848161045e565b92915050565b600080604083850312156104a1576104a06103df565b5b60006104af8582860161043f565b92505060206104c085828601610475565b9150509250929050565b60805160a051610a356104ef6000396000610410015260006104800152610a356000f3fe608060405234801561001057600080fd5b50600436106100575760003560e01c806303d06a4b1461005c578063047fc9aa1461007857806323fd0e4014610096578063a035b1fe146100b4578063fc0c546a146100d2575b600080fd5b61007660048036038101906100719190610698565b6100f0565b005b6100806103d4565b60405161008d9190610749565b60405180910390f35b61009e6103da565b6040516100ab9190610749565b60405180910390f35b6100bc6103e0565b6040516100c99190610749565b60405180910390f35b6100da6103e6565b6040516100e791906107c3565b60405180910390f35b6100f93361040c565b610138576040517f08c379a000000000000000000000000000000000000000000000000000000000815260040161012f9061083b565b60405180910390fd5b610140610539565b73ffffffffffffffffffffffffffffffffffffffff16600160009054906101000a900473ffffffffffffffffffffffffffffffffffffffff1673ffffffffffffffffffffffffffffffffffffffff16146101cf576040517f08c379a00000000000000000000000000000000000000000000000000000000081526004016101c6906108a7565b60405180910390fd5b600160009054906101000a900473ffffffffffffffffffffffffffffffffffffffff1673ffffffffffffffffffffffffffffffffffffffff1663d505accf883089898888886040518863ffffffff1660e01b815260040161023697969594939291906108f4565b600060405180830381600087803b15801561025057600080fd5b505af1158015610264573d6000803e3d6000fd5b50505050600160009054906101000a900473ffffffffffffffffffffffffffffffffffffffff1673ffffffffffffffffffffffffffffffffffffffff166323b872dd88306002546040518463ffffffff1660e01b81526004016102c993929190610963565b6020604051808303816000875af11580156102e8573d6000803e3d6000fd5b505050506040513d601f19601f8201168201806040525081019061030c91906109d2565b5083600381905550600061031e610548565b9050600160009054906101000a900473ffffffffffffffffffffffffffffffffffffffff1673ffffffffffffffffffffffffffffffffffffffff166323b872dd89610367610557565b846040518463ffffffff1660e01b815260040161038693929190610963565b6020604051808303816000875af11580156103a5573d6000803e3d6000fd5b505050506040513d601f19601f820116820180604052508101906103c991906109d2565b505050505050505050565b60005481565b60035481565b60025481565b600160009054906101000a900473ffffffffffffffffffffffffffffffffffffffff1681565b60007f00000000000000000000000000000000000000000000000000000000000000001561047e5773b16a1dbe755f992636705fdbb3a8678a657eb3ea73ffffffffffffffffffffffffffffffffffffffff168273ffffffffffffffffffffffffffffffffffffffff16149050610534565b7f0000000000000000000000000000000000000000000000000000000000000000156104ee5773abcc9b596420a9e9172fd5938620e265a0f9df9273ffffffffffffffffffffffffffffffffffffffff168273ffffffffffffffffffffffffffffffffffffffff16149050610534565b73cd565435e0d2109fefde337a66491541df0d142073ffffffffffffffffffffffffffffffffffffffff168273ffffffffffffffffffffffffffffffffffffffff161490505b919050565b6000610543610566565b905090565b6000610552610575565b905090565b6000610561610581565b905090565b6000603436033560601c905090565b60006020360335905090565b6000604836033560601c905090565b600080fd5b600073ffffffffffffffffffffffffffffffffffffffff82169050919050565b60006105c082610595565b9050919050565b6105d0816105b5565b81146105db57600080fd5b50565b6000813590506105ed816105c7565b92915050565b6000819050919050565b610606816105f3565b811461061157600080fd5b50565b600081359050610623816105fd565b92915050565b600060ff82169050919050565b61063f81610629565b811461064a57600080fd5b50565b60008135905061065c81610636565b92915050565b6000819050919050565b61067581610662565b811461068057600080fd5b50565b6000813590506106928161066c565b92915050565b600080600080600080600060e0888a0312156106b7576106b6610590565b5b60006106c58a828b016105de565b97505060206106d68a828b01610614565b96505060406106e78a828b01610614565b95505060606106f88a828b01610614565b94505060806107098a828b0161064d565b93505060a061071a8a828b01610683565b92505060c061072b8a828b01610683565b91505092959891949750929550565b610743816105f3565b82525050565b600060208201905061075e600083018461073a565b92915050565b6000819050919050565b600061078961078461077f84610595565b610764565b610595565b9050919050565b600061079b8261076e565b9050919050565b60006107ad82610790565b9050919050565b6107bd816107a2565b82525050565b60006020820190506107d860008301846107b4565b92915050565b600082825260208201905092915050565b7f6f6e6c7947656c61746f52656c61790000000000000000000000000000000000600082015250565b6000610825600f836107de565b9150610830826107ef565b602082019050919050565b6000602082019050818103600083015261085481610818565b9050919050565b7f496e636f72726563742046656520546f6b656e00000000000000000000000000600082015250565b60006108916013836107de565b915061089c8261085b565b602082019050919050565b600060208201905081810360008301526108c081610884565b9050919050565b6108d0816105b5565b82525050565b6108df81610629565b82525050565b6108ee81610662565b82525050565b600060e082019050610909600083018a6108c7565b61091660208301896108c7565b610923604083018861073a565b610930606083018761073a565b61093d60808301866108d6565b61094a60a08301856108e5565b61095760c08301846108e5565b98975050505050505050565b600060608201905061097860008301866108c7565b61098560208301856108c7565b610992604083018461073a565b949350505050565b60008115159050919050565b6109af8161099a565b81146109ba57600080fd5b50565b6000815190506109cc816109a6565b92915050565b6000602082840312156109e8576109e7610590565b5b60006109f6848285016109bd565b9150509291505056fea264697066735822122034ec46f39fa1252be00f7da9cedbbc7b08d02b8430971e8983d0269ce7b6fa1f64736f6c634300081b0033",
  "linkReferences": {},
  "deployedLinkReferences": {}
}